{
  "_format": "hh-sol-artifact-1",
  "contractName": "WavePortal",
  "sourceName": "contracts/WavePortal.sol",
  "abi": [
    {
      "inputs": [],
      "stateMutability": "payable",
      "type": "constructor"
    },
    {
      "anonymous": false,
      "inputs": [
        {
          "indexed": true,
          "internalType": "address",
          "name": "from",
          "type": "address"
        },
        {
          "indexed": false,
          "internalType": "uint256",
          "name": "timestamp",
          "type": "uint256"
        },
        {
          "indexed": false,
          "internalType": "string",
          "name": "message",
          "type": "string"
        }
      ],
      "name": "NewWave",
      "type": "event"
    },
    {
      "inputs": [],
      "name": "getAllWaves",
      "outputs": [
        {
          "components": [
            {
              "internalType": "address",
              "name": "waver",
              "type": "address"
            },
            {
              "internalType": "string",
              "name": "message",
              "type": "string"
            },
            {
              "internalType": "uint256",
              "name": "timestamp",
              "type": "uint256"
            }
          ],
          "internalType": "struct WavePortal.Wave[]",
          "name": "",
          "type": "tuple[]"
        }
      ],
      "stateMutability": "view",
      "type": "function"
    },
    {
      "inputs": [
        {
          "internalType": "address",
          "name": "",
          "type": "address"
        }
      ],
      "name": "lastWavedAt",
      "outputs": [
        {
          "internalType": "uint256",
          "name": "",
          "type": "uint256"
        }
      ],
      "stateMutability": "view",
      "type": "function"
    },
    {
      "inputs": [
        {
          "internalType": "string",
          "name": "_message",
          "type": "string"
        }
      ],
      "name": "wave",
      "outputs": [],
      "stateMutability": "nonpayable",
      "type": "function"
    }
  ],
  "bytecode": "0x6080604052606444426200001491906200002c565b62000020919062000093565b60008190555062000129565b6000620000398262000089565b9150620000468362000089565b9250827fffffffffffffffffffffffffffffffffffffffffffffffffffffffffffffffff038211156200007e576200007d620000cb565b5b828201905092915050565b6000819050919050565b6000620000a08262000089565b9150620000ad8362000089565b925082620000c057620000bf620000fa565b5b828206905092915050565b7f4e487b7100000000000000000000000000000000000000000000000000000000600052601160045260246000fd5b7f4e487b7100000000000000000000000000000000000000000000000000000000600052601260045260246000fd5b610de480620001396000396000f3fe608060405234801561001057600080fd5b50600436106100415760003560e01c8063449d46c014610046578063a42a466314610062578063bd43a90814610092575b600080fd5b610060600480360381019061005b9190610684565b6100b0565b005b61007c6004803603810190610077919061065b565b6103d2565b6040516100899190610960565b60405180910390f35b61009a6103ea565b6040516100a791906108de565b60405180910390f35b42601e600260003373ffffffffffffffffffffffffffffffffffffffff1673ffffffffffffffffffffffffffffffffffffffff168152602001908152602001600020546100fd9190610a72565b1061013d576040517f08c379a000000000000000000000000000000000000000000000000000000000815260040161013490610940565b60405180910390fd5b42600260003373ffffffffffffffffffffffffffffffffffffffff1673ffffffffffffffffffffffffffffffffffffffff16815260200190815260200160002081905550600160405180606001604052803373ffffffffffffffffffffffffffffffffffffffff16815260200183815260200142815250908060018154018082558091505060019003906000526020600020906003020160009091909190915060008201518160000160006101000a81548173ffffffffffffffffffffffffffffffffffffffff021916908373ffffffffffffffffffffffffffffffffffffffff160217905550602082015181600101908051906020019061024092919061053b565b506040820151816002015550506064600054424461025e9190610a72565b6102689190610a72565b6102729190610ba9565b60008190555060326000541161037f576000655af3107a40009050478111156102d0576040517f08c379a00000000000000000000000000000000000000000000000000000000081526004016102c790610900565b60405180910390fd5b60003373ffffffffffffffffffffffffffffffffffffffff16826040516102f6906108c9565b60006040518083038185875af1925050503d8060008114610333576040519150601f19603f3d011682016040523d82523d6000602084013e610338565b606091505b505090508061037c576040517f08c379a000000000000000000000000000000000000000000000000000000000815260040161037390610920565b60405180910390fd5b50505b3373ffffffffffffffffffffffffffffffffffffffff167f5f7e16dc676677766a70e9c5628aa6c54ddb8b6e5188e2ae1e1f17f1ffbea71642836040516103c792919061097b565b60405180910390a250565b60026020528060005260406000206000915090505481565b60606001805480602002602001604051908101604052809291908181526020016000905b8282101561053257838290600052602060002090600302016040518060600160405290816000820160009054906101000a900473ffffffffffffffffffffffffffffffffffffffff1673ffffffffffffffffffffffffffffffffffffffff1673ffffffffffffffffffffffffffffffffffffffff16815260200160018201805461049790610b46565b80601f01602080910402602001604051908101604052809291908181526020018280546104c390610b46565b80156105105780601f106104e557610100808354040283529160200191610510565b820191906000526020600020905b8154815290600101906020018083116104f357829003601f168201915b505050505081526020016002820154815250508152602001906001019061040e565b50505050905090565b82805461054790610b46565b90600052602060002090601f01602090048101928261056957600085556105b0565b82601f1061058257805160ff19168380011785556105b0565b828001600101855582156105b0579182015b828111156105af578251825591602001919060010190610594565b5b5090506105bd91906105c1565b5090565b5b808211156105da5760008160009055506001016105c2565b5090565b60006105f16105ec846109d0565b6109ab565b90508281526020810184848401111561060957600080fd5b610614848285610b04565b509392505050565b60008135905061062b81610d97565b92915050565b600082601f83011261064257600080fd5b81356106528482602086016105de565b91505092915050565b60006020828403121561066d57600080fd5b600061067b8482850161061c565b91505092915050565b60006020828403121561069657600080fd5b600082013567ffffffffffffffff8111156106b057600080fd5b6106bc84828501610631565b91505092915050565b60006106d1838361085b565b905092915050565b6106e281610ac8565b82525050565b60006106f382610a11565b6106fd8185610a34565b93508360208202850161070f85610a01565b8060005b8581101561074b578484038952815161072c85826106c5565b945061073783610a27565b925060208a01995050600181019050610713565b50829750879550505050505092915050565b600061076882610a1c565b6107728185610a50565b9350610782818560208601610b13565b61078b81610c96565b840191505092915050565b60006107a182610a1c565b6107ab8185610a61565b93506107bb818560208601610b13565b6107c481610c96565b840191505092915050565b60006107dc603483610a61565b91506107e782610ca7565b604082019050919050565b60006107ff602783610a61565b915061080a82610cf6565b604082019050919050565b6000610822602283610a61565b915061082d82610d45565b604082019050919050565b6000610845600083610a45565b915061085082610d94565b600082019050919050565b600060608301600083015161087360008601826106d9565b506020830151848203602086015261088b828261075d565b91505060408301516108a060408601826108ab565b508091505092915050565b6108b481610afa565b82525050565b6108c381610afa565b82525050565b60006108d482610838565b9150819050919050565b600060208201905081810360008301526108f881846106e8565b905092915050565b60006020820190508181036000830152610919816107cf565b9050919050565b60006020820190508181036000830152610939816107f2565b9050919050565b6000602082019050818103600083015261095981610815565b9050919050565b600060208201905061097560008301846108ba565b92915050565b600060408201905061099060008301856108ba565b81810360208301526109a28184610796565b90509392505050565b60006109b56109c6565b90506109c18282610b78565b919050565b6000604051905090565b600067ffffffffffffffff8211156109eb576109ea610c67565b5b6109f482610c96565b9050602081019050919050565b6000819050602082019050919050565b600081519050919050565b600081519050919050565b6000602082019050919050565b600082825260208201905092915050565b600081905092915050565b600082825260208201905092915050565b600082825260208201905092915050565b6000610a7d82610afa565b9150610a8883610afa565b9250827fffffffffffffffffffffffffffffffffffffffffffffffffffffffffffffffff03821115610abd57610abc610bda565b5b828201905092915050565b6000610ad382610ada565b9050919050565b600073ffffffffffffffffffffffffffffffffffffffff82169050919050565b6000819050919050565b82818337600083830152505050565b60005b83811015610b31578082015181840152602081019050610b16565b83811115610b40576000848401525b50505050565b60006002820490506001821680610b5e57607f821691505b60208210811415610b7257610b71610c38565b5b50919050565b610b8182610c96565b810181811067ffffffffffffffff82111715610ba057610b9f610c67565b5b80604052505050565b6000610bb482610afa565b9150610bbf83610afa565b925082610bcf57610bce610c09565b5b828206905092915050565b7f4e487b7100000000000000000000000000000000000000000000000000000000600052601160045260246000fd5b7f4e487b7100000000000000000000000000000000000000000000000000000000600052601260045260246000fd5b7f4e487b7100000000000000000000000000000000000000000000000000000000600052602260045260246000fd5b7f4e487b7100000000000000000000000000000000000000000000000000000000600052604160045260246000fd5b6000601f19601f8301169050919050565b7f547279696e6720746f207769746864726177206d6f7265206d6f6e657920746860008201527f616e2074686520636f6e7472616374206861732e000000000000000000000000602082015250565b7f4661696c656420746f207769746864726177206d6f6e65792066726f6d20636f60008201527f6e74726163742e00000000000000000000000000000000000000000000000000602082015250565b7f536f7272792c20796f75206861766520746f2077616974203330206d696e757460008201527f6573000000000000000000000000000000000000000000000000000000000000602082015250565b50565b610da081610ac8565b8114610dab57600080fd5b5056fea2646970667358221220e40396d41cdbe6c359fafdf6a1a34bccb6acf6f037ecb7db0ec5482d3cc75ebf64736f6c63430008040033",
  "linkReferences": {},
  "deployedLinkReferences": {}
}